{
  "address": "0xd331d4A277eEeF76a469f0F65FAe3197C1E0224f",
  "abi": [
    {
      "inputs": [
        {
          "internalType": "address",
          "name": "vrfCoordinatorV2",
          "type": "address"
        },
        {
          "internalType": "uint64",
          "name": "subscriptionId",
          "type": "uint64"
        },
        {
          "internalType": "bytes32",
          "name": "gasLane",
          "type": "bytes32"
        },
        {
          "internalType": "uint32",
          "name": "callbackGasLimit",
          "type": "uint32"
        }
      ],
      "stateMutability": "nonpayable",
      "type": "constructor"
    },
    {
      "inputs": [
        {
          "internalType": "address",
          "name": "have",
          "type": "address"
        },
        {
          "internalType": "address",
          "name": "want",
          "type": "address"
        }
      ],
      "name": "OnlyCoordinatorCanFulfill",
      "type": "error"
    },
    {
      "inputs": [],
      "name": "OnlySimulatedBackend",
      "type": "error"
    },
    {
      "anonymous": false,
      "inputs": [
        {
          "indexed": true,
          "internalType": "uint256",
          "name": "hypothesisId",
          "type": "uint256"
        },
        {
          "indexed": true,
          "internalType": "address",
          "name": "researcher",
          "type": "address"
        },
        {
          "indexed": false,
          "internalType": "string",
          "name": "badgeType",
          "type": "string"
        }
      ],
      "name": "BadgeAwarded",
      "type": "event"
    },
    {
      "anonymous": false,
      "inputs": [
        {
          "indexed": true,
          "internalType": "uint256",
          "name": "hypothesisId",
          "type": "uint256"
        },
        {
          "indexed": true,
          "internalType": "address",
          "name": "researcher",
          "type": "address"
        },
        {
          "indexed": false,
          "internalType": "string",
          "name": "content",
          "type": "string"
        }
      ],
      "name": "HypothesisSubmitted",
      "type": "event"
    },
    {
      "anonymous": false,
      "inputs": [
        {
          "indexed": true,
          "internalType": "uint256",
          "name": "hypothesisId",
          "type": "uint256"
        },
        {
          "indexed": false,
          "internalType": "uint256",
          "name": "score",
          "type": "uint256"
        },
        {
          "indexed": false,
          "internalType": "string",
          "name": "result",
          "type": "string"
        }
      ],
      "name": "HypothesisValidated",
      "type": "event"
    },
    {
      "anonymous": false,
      "inputs": [
        {
          "indexed": true,
          "internalType": "address",
          "name": "from",
          "type": "address"
        },
        {
          "indexed": true,
          "internalType": "address",
          "name": "to",
          "type": "address"
        }
      ],
      "name": "OwnershipTransferRequested",
      "type": "event"
    },
    {
      "anonymous": false,
      "inputs": [
        {
          "indexed": true,
          "internalType": "address",
          "name": "from",
          "type": "address"
        },
        {
          "indexed": true,
          "internalType": "address",
          "name": "to",
          "type": "address"
        }
      ],
      "name": "OwnershipTransferred",
      "type": "event"
    },
    {
      "anonymous": false,
      "inputs": [
        {
          "indexed": true,
          "internalType": "uint256",
          "name": "hypothesisId",
          "type": "uint256"
        },
        {
          "indexed": false,
          "internalType": "bytes32",
          "name": "requestId",
          "type": "bytes32"
        }
      ],
      "name": "ValidationRequested",
      "type": "event"
    },
    {
      "inputs": [],
      "name": "acceptOwnership",
      "outputs": [],
      "stateMutability": "nonpayable",
      "type": "function"
    },
    {
      "inputs": [
        {
          "internalType": "string",
          "name": "badgeType",
          "type": "string"
        }
      ],
      "name": "addBadgeType",
      "outputs": [],
      "stateMutability": "nonpayable",
      "type": "function"
    },
    {
      "inputs": [
        {
          "internalType": "uint256",
          "name": "",
          "type": "uint256"
        }
      ],
      "name": "badgeTypes",
      "outputs": [
        {
          "internalType": "string",
          "name": "",
          "type": "string"
        }
      ],
      "stateMutability": "view",
      "type": "function"
    },
    {
      "inputs": [
        {
          "internalType": "bytes",
          "name": "",
          "type": "bytes"
        }
      ],
      "name": "checkUpkeep",
      "outputs": [
        {
          "internalType": "bool",
          "name": "upkeepNeeded",
          "type": "bool"
        },
        {
          "internalType": "bytes",
          "name": "performData",
          "type": "bytes"
        }
      ],
      "stateMutability": "view",
      "type": "function"
    },
    {
      "inputs": [],
      "name": "getBadgeTypes",
      "outputs": [
        {
          "internalType": "string[]",
          "name": "",
          "type": "string[]"
        }
      ],
      "stateMutability": "view",
      "type": "function"
    },
    {
      "inputs": [
        {
          "internalType": "uint256",
          "name": "hypothesisId",
          "type": "uint256"
        }
      ],
      "name": "getHypothesis",
      "outputs": [
        {
          "components": [
            {
              "internalType": "string",
              "name": "content",
              "type": "string"
            },
            {
              "internalType": "string",
              "name": "metadata",
              "type": "string"
            },
            {
              "internalType": "address",
              "name": "researcher",
              "type": "address"
            },
            {
              "internalType": "uint256",
              "name": "timestamp",
              "type": "uint256"
            },
            {
              "internalType": "bool",
              "name": "isValidated",
              "type": "bool"
            },
            {
              "internalType": "uint256",
              "name": "validationScore",
              "type": "uint256"
            },
            {
              "internalType": "string",
              "name": "validationResult",
              "type": "string"
            }
          ],
          "internalType": "struct ChainlinkHypothesisValidator.Hypothesis",
          "name": "",
          "type": "tuple"
        }
      ],
      "stateMutability": "view",
      "type": "function"
    },
    {
      "inputs": [
        {
          "internalType": "address",
          "name": "researcher",
          "type": "address"
        }
      ],
      "name": "getResearcherHypotheses",
      "outputs": [
        {
          "internalType": "uint256[]",
          "name": "",
          "type": "uint256[]"
        }
      ],
      "stateMutability": "view",
      "type": "function"
    },
    {
      "inputs": [
        {
          "internalType": "uint256",
          "name": "",
          "type": "uint256"
        }
      ],
      "name": "hypotheses",
      "outputs": [
        {
          "internalType": "string",
          "name": "content",
          "type": "string"
        },
        {
          "internalType": "string",
          "name": "metadata",
          "type": "string"
        },
        {
          "internalType": "address",
          "name": "researcher",
          "type": "address"
        },
        {
          "internalType": "uint256",
          "name": "timestamp",
          "type": "uint256"
        },
        {
          "internalType": "bool",
          "name": "isValidated",
          "type": "bool"
        },
        {
          "internalType": "uint256",
          "name": "validationScore",
          "type": "uint256"
        },
        {
          "internalType": "string",
          "name": "validationResult",
          "type": "string"
        }
      ],
      "stateMutability": "view",
      "type": "function"
    },
    {
      "inputs": [],
      "name": "hypothesisCounter",
      "outputs": [
        {
          "internalType": "uint256",
          "name": "",
          "type": "uint256"
        }
      ],
      "stateMutability": "view",
      "type": "function"
    },
    {
      "inputs": [],
      "name": "owner",
      "outputs": [
        {
          "internalType": "address",
          "name": "",
          "type": "address"
        }
      ],
      "stateMutability": "view",
      "type": "function"
    },
    {
      "inputs": [
        {
          "internalType": "bytes",
          "name": "performData",
          "type": "bytes"
        }
      ],
      "name": "performUpkeep",
      "outputs": [],
      "stateMutability": "nonpayable",
      "type": "function"
    },
    {
      "inputs": [
        {
          "internalType": "uint256",
          "name": "requestId",
          "type": "uint256"
        },
        {
          "internalType": "uint256[]",
          "name": "randomWords",
          "type": "uint256[]"
        }
      ],
      "name": "rawFulfillRandomWords",
      "outputs": [],
      "stateMutability": "nonpayable",
      "type": "function"
    },
    {
      "inputs": [
        {
          "internalType": "uint256",
          "name": "hypothesisId",
          "type": "uint256"
        }
      ],
      "name": "requestBadgeAssignment",
      "outputs": [],
      "stateMutability": "nonpayable",
      "type": "function"
    },
    {
      "inputs": [
        {
          "internalType": "uint256",
          "name": "",
          "type": "uint256"
        }
      ],
      "name": "requestIdToHypothesisId",
      "outputs": [
        {
          "internalType": "uint256",
          "name": "",
          "type": "uint256"
        }
      ],
      "stateMutability": "view",
      "type": "function"
    },
    {
      "inputs": [
        {
          "internalType": "address",
          "name": "",
          "type": "address"
        },
        {
          "internalType": "uint256",
          "name": "",
          "type": "uint256"
        }
      ],
      "name": "researcherHypotheses",
      "outputs": [
        {
          "internalType": "uint256",
          "name": "",
          "type": "uint256"
        }
      ],
      "stateMutability": "view",
      "type": "function"
    },
    {
      "inputs": [
        {
          "internalType": "uint256",
          "name": "newThreshold",
          "type": "uint256"
        }
      ],
      "name": "setValidationThreshold",
      "outputs": [],
      "stateMutability": "nonpayable",
      "type": "function"
    },
    {
      "inputs": [
        {
          "internalType": "string",
          "name": "content",
          "type": "string"
        },
        {
          "internalType": "string",
          "name": "metadata",
          "type": "string"
        }
      ],
      "name": "submitHypothesis",
      "outputs": [],
      "stateMutability": "nonpayable",
      "type": "function"
    },
    {
      "inputs": [
        {
          "internalType": "address",
          "name": "to",
          "type": "address"
        }
      ],
      "name": "transferOwnership",
      "outputs": [],
      "stateMutability": "nonpayable",
      "type": "function"
    },
    {
      "inputs": [],
      "name": "validationThreshold",
      "outputs": [
        {
          "internalType": "uint256",
          "name": "",
          "type": "uint256"
        }
      ],
      "stateMutability": "view",
      "type": "function"
    }
  ],
  "transactionHash": "0xdf944b263d1d0fd6f5022766160b4d6ff9d7a18a674290344f71b04332fee88b",
  "args": [
    "0x1D50A2213D79252578Bc2c72d38d81adDc877E2c",
    1,
    "0x474e34a077df58807dbe9c96d3c009b23b3c6d0cce433e59bbf5b34f823bc56c",
    500000
  ],
  "numDeployments": 1,
  "solcInputHash": "bd2cef2bd69b7347cd6a8481b80d729f",
  "bytecode": "0x604b6006908155600a6101c09081526924b73737bb30ba34b7b760b11b6101e0526101209081526005610200818152642934b3b7b960d91b610220526101405261024092835265125b5c1858dd60d21b61026052610160929092526007610280818152664e6f76656c747960c81b6102a05261018052610300604052600b6102c09081526a4d6574686f646f6c6f677960a81b6102e0526101a052620000a8929091906200024d565b50348015620000b657600080fd5b506040516200226e3803806200226e833981016040819052620000d99162000324565b6001600160a01b03841660805233806000816200013d5760405162461bcd60e51b815260206004820152601860248201527f43616e6e6f7420736574206f776e657220746f207a65726f000000000000000060448201526064015b60405180910390fd5b600080546001600160a01b0319166001600160a01b038481169190911790915581161562000170576200017081620001a2565b5050506001600160a01b0390931660a0526001600160401b0390911660c05260e05263ffffffff16610100526200050f565b336001600160a01b03821603620001fc5760405162461bcd60e51b815260206004820152601760248201527f43616e6e6f74207472616e7366657220746f2073656c66000000000000000000604482015260640162000134565b600180546001600160a01b0319166001600160a01b0383811691821790925560008054604051929316917fed8889f560326eb138920d842192f0eb3dd22b4f139c87a2c57538e05bae12789190a350565b82805482825590600052602060002090810192821562000298579160200282015b8281111562000298578251829062000287908262000443565b50916020019190600101906200026e565b50620002a6929150620002aa565b5090565b80821115620002a6576000620002c18282620002cb565b50600101620002aa565b508054620002d990620003b4565b6000825580601f10620002ea575050565b601f0160209004906000526020600020908101906200030a91906200030d565b50565b5b80821115620002a657600081556001016200030e565b600080600080608085870312156200033b57600080fd5b84516001600160a01b03811681146200035357600080fd5b60208601519094506001600160401b03811681146200037157600080fd5b60408601516060870151919450925063ffffffff811681146200039357600080fd5b939692955090935050565b634e487b7160e01b600052604160045260246000fd5b600181811c90821680620003c957607f821691505b602082108103620003ea57634e487b7160e01b600052602260045260246000fd5b50919050565b601f8211156200043e57600081815260208120601f850160051c81016020861015620004195750805b601f850160051c820191505b818110156200043a5782815560010162000425565b5050505b505050565b81516001600160401b038111156200045f576200045f6200039e565b6200047781620004708454620003b4565b84620003f0565b602080601f831160018114620004af5760008415620004965750858301515b600019600386901b1c1916600185901b1785556200043a565b600085815260208120601f198616915b82811015620004e057888601518255948401946001909101908401620004bf565b5085821015620004ff5787850151600019600388901b60f8161c191681555b5050505050600190811b01905550565b60805160a05160c05160e05161010051611d136200055b6000396000610525015260006104c3015260006104f2015260006105560152600081816102ef01526103310152611d136000f3fe608060405234801561001057600080fd5b50600436106101215760003560e01c806381739aab116100ad578063d005507a11610071578063d005507a1461027c578063da4a4d621461028f578063ed19dc7d146102b5578063eeb6babf146102c8578063f2fde38b146102d157600080fd5b806381739aab146101f85780638da5cb5b14610201578063ae9abb7b1461021c578063c897db971461023c578063cb5b5b701461025c57600080fd5b8063310a5644116100f4578063310a5644146101945780633589f55d146101a75780634585e33b146101bc5780636e04ff0d146101cf57806379ba5097146101f057600080fd5b8063169255c1146101265780631fe543e31461015957806323e0afb31461016e578063271aae3214610181575b600080fd5b610146610134366004611519565b60036020526000908152604090205481565b6040519081526020015b60405180910390f35b61016c610167366004611579565b6102e4565b005b61016c61017c366004611519565b610371565b61016c61018f36600461169b565b61061f565b6101466101a236600461171b565b6107cf565b6101af610800565b6040516101509190611795565b61016c6101ca3660046117f7565b6108d9565b6101e26101dd3660046117f7565b6108f7565b604051610150929190611869565b61016c61098b565b61014660055481565b6000546040516001600160a01b039091168152602001610150565b61022f61022a366004611519565b610a35565b604051610150919061188c565b61024f61024a3660046118a6565b610ae1565b60405161015091906118c1565b61026f61026a366004611519565b610b4d565b6040516101509190611905565b61016c61028a366004611999565b610da7565b6102a261029d366004611519565b610deb565b60405161015097969594939291906119ce565b61016c6102c3366004611519565b610fd0565b61014660065481565b61016c6102df3660046118a6565b61102e565b336001600160a01b037f000000000000000000000000000000000000000000000000000000000000000016146103635760405163073e64fd60e21b81523360048201526001600160a01b037f00000000000000000000000000000000000000000000000000000000000000001660248201526044015b60405180910390fd5b61036d8282611042565b5050565b600081815260026020819052604090912001546001600160a01b031633146103e55760405162461bcd60e51b815260206004820152602160248201527f4f6e6c7920726573656172636865722063616e207265717565737420626164676044820152606560f81b606482015260840161035a565b60008181526002602052604090206004015460ff166104515760405162461bcd60e51b815260206004820152602260248201527f4879706f746865736973206d7573742062652076616c696461746564206669726044820152611cdd60f21b606482015260840161035a565b60065460008281526002602052604090206005015410156104b45760405162461bcd60e51b815260206004820152601760248201527f53636f726520746f6f206c6f7720666f72206261646765000000000000000000604482015260640161035a565b6040516305d3b1d360e41b81527f0000000000000000000000000000000000000000000000000000000000000000600482015267ffffffffffffffff7f00000000000000000000000000000000000000000000000000000000000000001660248201526003604482015263ffffffff7f0000000000000000000000000000000000000000000000000000000000000000166064820152600160848201526000907f00000000000000000000000000000000000000000000000000000000000000006001600160a01b031690635d3b1d309060a4016020604051808303816000875af11580156105a7573d6000803e3d6000fd5b505050506040513d601f19601f820116820180604052508101906105cb9190611a3a565b600081815260036020526040908190208490555190915082907fe27433be2252dabeb79318bb56abc2310cf334d0583888095b07520ace457bb8906106139084815260200190565b60405180910390a25050565b600082511161067b5760405162461bcd60e51b815260206004820152602260248201527f4879706f74686573697320636f6e74656e742063616e6e6f7420626520656d70604482015261747960f01b606482015260840161035a565b6005805490600061068b83611a69565b90915550506005546040805160e0810182528481526020808201859052338284015242606083015260006080830181905260a083018190528351808301855281815260c0840152848152600290915291909120815181906106ec9082611b04565b50602082015160018201906107019082611b04565b5060408201516002820180546001600160a01b0319166001600160a01b0390921691909117905560608201516003820155608082015160048201805460ff191691151591909117905560a0820151600582015560c082015160068201906107689082611b04565b5050336000818152600460209081526040808320805460018101825590845291909220018490555190915082907fba0d28c469c3d99e8fa9ec26c9d0f0b9a5868160eaa23a0be36556015199de73906107c290879061188c565b60405180910390a3505050565b600460205281600052604060002081815481106107eb57600080fd5b90600052602060002001600091509150505481565b60606007805480602002602001604051908101604052809291908181526020016000905b828210156108d057838290600052602060002001805461084390611a82565b80601f016020809104026020016040519081016040528092919081815260200182805461086f90611a82565b80156108bc5780601f10610891576101008083540402835291602001916108bc565b820191906000526020600020905b81548152906001019060200180831161089f57829003601f168201915b505050505081526020019060010190610824565b50505050905090565b60006108e782840184611519565b90506108f2816111cb565b505050565b6000606060015b60055481116109835760008181526002602052604090206004015460ff161580156109465750600081815260026020526040902060030154610e10906109449042611bc4565b115b1561097157604080516020810183905260019450016040516020818303038152906040529150610983565b8061097b81611a69565b9150506108fe565b509250929050565b6001546001600160a01b031633146109de5760405162461bcd60e51b815260206004820152601660248201527526bab9ba10313290383937b837b9b2b21037bbb732b960511b604482015260640161035a565b60008054336001600160a01b0319808316821784556001805490911690556040516001600160a01b0390921692909183917f8be0079c531659141344cd1fd0a4f28419497f9722a3daafe3b4186f6b6457e091a350565b60078181548110610a4557600080fd5b906000526020600020016000915090508054610a6090611a82565b80601f0160208091040260200160405190810160405280929190818152602001828054610a8c90611a82565b8015610ad95780601f10610aae57610100808354040283529160200191610ad9565b820191906000526020600020905b815481529060010190602001808311610abc57829003601f168201915b505050505081565b6001600160a01b038116600090815260046020908152604091829020805483518184028101840190945280845260609392830182828015610b4157602002820191906000526020600020905b815481526020019060010190808311610b2d575b50505050509050919050565b610b986040518060e00160405280606081526020016060815260200160006001600160a01b031681526020016000815260200160001515815260200160008152602001606081525090565b60008281526002602052604090819020815160e08101909252805482908290610bc090611a82565b80601f0160208091040260200160405190810160405280929190818152602001828054610bec90611a82565b8015610c395780601f10610c0e57610100808354040283529160200191610c39565b820191906000526020600020905b815481529060010190602001808311610c1c57829003601f168201915b50505050508152602001600182018054610c5290611a82565b80601f0160208091040260200160405190810160405280929190818152602001828054610c7e90611a82565b8015610ccb5780601f10610ca057610100808354040283529160200191610ccb565b820191906000526020600020905b815481529060010190602001808311610cae57829003601f168201915b505050918352505060028201546001600160a01b0316602082015260038201546040820152600482015460ff16151560608201526005820154608082015260068201805460a090920191610d1e90611a82565b80601f0160208091040260200160405190810160405280929190818152602001828054610d4a90611a82565b8015610d975780601f10610d6c57610100808354040283529160200191610d97565b820191906000526020600020905b815481529060010190602001808311610d7a57829003601f168201915b5050505050815250509050919050565b610daf611382565b600780546001810182556000919091527fa66cc928b5edb82af9bd49922954155ab7b0942694bea4ce44661d9a8736c6880161036d8282611b04565b600260205260009081526040902080548190610e0690611a82565b80601f0160208091040260200160405190810160405280929190818152602001828054610e3290611a82565b8015610e7f5780601f10610e5457610100808354040283529160200191610e7f565b820191906000526020600020905b815481529060010190602001808311610e6257829003601f168201915b505050505090806001018054610e9490611a82565b80601f0160208091040260200160405190810160405280929190818152602001828054610ec090611a82565b8015610f0d5780601f10610ee257610100808354040283529160200191610f0d565b820191906000526020600020905b815481529060010190602001808311610ef057829003601f168201915b505050600284015460038501546004860154600587015460068801805497986001600160a01b039095169793965060ff90921694509291610f4d90611a82565b80601f0160208091040260200160405190810160405280929190818152602001828054610f7990611a82565b8015610fc65780601f10610f9b57610100808354040283529160200191610fc6565b820191906000526020600020905b815481529060010190602001808311610fa957829003601f168201915b5050505050905087565b610fd8611382565b60648111156110295760405162461bcd60e51b815260206004820152601860248201527f5468726573686f6c64206d757374206265203c3d203130300000000000000000604482015260640161035a565b600655565b611036611382565b61103f816113d7565b50565b600082815260036020526040902054806110935760405162461bcd60e51b8152602060048201526012602482015271125b9d985b1a59081c995c5d595cdd08125160721b604482015260640161035a565b6000600780549050836000815181106110ae576110ae611bdd565b60200260200101516110c09190611bf3565b90506000600782815481106110d7576110d7611bdd565b9060005260206000200180546110ec90611a82565b80601f016020809104026020016040519081016040528092919081815260200182805461111890611a82565b80156111655780601f1061113a57610100808354040283529160200191611165565b820191906000526020600020905b81548152906001019060200180831161114857829003601f168201915b505050600086815260026020819052604091829020015490519394506001600160a01b0316928692507f2070a91e092f125dd21340f4fb86539dd83f09bf9af03a6417d41099e46b469291506111bc90859061188c565b60405180910390a35050505050565b6000818152600260205260409020600481015460ff161561122e5760405162461bcd60e51b815260206004820152601c60248201527f4879706f74686573697320616c72656164792076616c69646174656400000000604482015260640161035a565b60006112c582600001805461124290611a82565b80601f016020809104026020016040519081016040528092919081815260200182805461126e90611a82565b80156112bb5780601f10611290576101008083540402835291602001916112bb565b820191906000526020600020905b81548152906001019060200180831161129e57829003601f168201915b5050505050611480565b6005830181905560048301805460ff1916600117905560065490915081101561130e57604051806040016040528060088152602001671491529150d5115160c21b815250611330565b604051806040016040528060088152602001671054141493d5915160c21b8152505b600683019061133f9082611b04565b50827f2659946557ba971d6e2f6d3e1f6267c8706e0684a872cab2735b49d1d116e4bf8284600601604051611375929190611c15565b60405180910390a2505050565b6000546001600160a01b031633146113d55760405162461bcd60e51b815260206004820152601660248201527527b7363c9031b0b63630b1363290313c9037bbb732b960511b604482015260640161035a565b565b336001600160a01b0382160361142f5760405162461bcd60e51b815260206004820152601760248201527f43616e6e6f74207472616e7366657220746f2073656c66000000000000000000604482015260640161035a565b600180546001600160a01b0319166001600160a01b0383811691821790925560008054604051929316917fed8889f560326eb138920d842192f0eb3dd22b4f139c87a2c57538e05bae12789190a350565b8051600090603281101561149757601e91506114c1565b60c88110156114a957603c91506114c1565b6101f48110156114bc57605091506114c1565b605a91505b601483426040516020016114d6929190611ca8565b6040516020818303038152906040528051906020012060001c6114f99190611bf3565b6115039083611cca565b9150606482111561151357606491505b50919050565b60006020828403121561152b57600080fd5b5035919050565b634e487b7160e01b600052604160045260246000fd5b604051601f8201601f1916810167ffffffffffffffff8111828210171561157157611571611532565b604052919050565b6000806040838503121561158c57600080fd5b8235915060208084013567ffffffffffffffff808211156115ac57600080fd5b818601915086601f8301126115c057600080fd5b8135818111156115d2576115d2611532565b8060051b91506115e3848301611548565b81815291830184019184810190898411156115fd57600080fd5b938501935b8385101561161b57843582529385019390850190611602565b8096505050505050509250929050565b600082601f83011261163c57600080fd5b813567ffffffffffffffff81111561165657611656611532565b611669601f8201601f1916602001611548565b81815284602083860101111561167e57600080fd5b816020850160208301376000918101602001919091529392505050565b600080604083850312156116ae57600080fd5b823567ffffffffffffffff808211156116c657600080fd5b6116d28683870161162b565b935060208501359150808211156116e857600080fd5b506116f58582860161162b565b9150509250929050565b80356001600160a01b038116811461171657600080fd5b919050565b6000806040838503121561172e57600080fd5b611737836116ff565b946020939093013593505050565b60005b83811015611760578181015183820152602001611748565b50506000910152565b60008151808452611781816020860160208601611745565b601f01601f19169290920160200192915050565b6000602080830181845280855180835260408601915060408160051b870101925083870160005b828110156117ea57603f198886030184526117d8858351611769565b945092850192908501906001016117bc565b5092979650505050505050565b6000806020838503121561180a57600080fd5b823567ffffffffffffffff8082111561182257600080fd5b818501915085601f83011261183657600080fd5b81358181111561184557600080fd5b86602082850101111561185757600080fd5b60209290920196919550909350505050565b82151581526040602082015260006118846040830184611769565b949350505050565b60208152600061189f6020830184611769565b9392505050565b6000602082840312156118b857600080fd5b61189f826116ff565b6020808252825182820181905260009190848201906040850190845b818110156118f9578351835292840192918401916001016118dd565b50909695505050505050565b602081526000825160e06020840152611922610100840182611769565b90506020840151601f19808584030160408601526119408383611769565b925060018060a01b036040870151166060860152606086015160808601526080860151151560a086015260a086015160c086015260c08601519150808584030160e0860152506119908282611769565b95945050505050565b6000602082840312156119ab57600080fd5b813567ffffffffffffffff8111156119c257600080fd5b6118848482850161162b565b60e0815260006119e160e083018a611769565b82810360208401526119f3818a611769565b6001600160a01b038916604085015260608401889052861515608085015260a0840186905283810360c08501529050611a2c8185611769565b9a9950505050505050505050565b600060208284031215611a4c57600080fd5b5051919050565b634e487b7160e01b600052601160045260246000fd5b600060018201611a7b57611a7b611a53565b5060010190565b600181811c90821680611a9657607f821691505b60208210810361151357634e487b7160e01b600052602260045260246000fd5b601f8211156108f257600081815260208120601f850160051c81016020861015611add5750805b601f850160051c820191505b81811015611afc57828155600101611ae9565b505050505050565b815167ffffffffffffffff811115611b1e57611b1e611532565b611b3281611b2c8454611a82565b84611ab6565b602080601f831160018114611b675760008415611b4f5750858301515b600019600386901b1c1916600185901b178555611afc565b600085815260208120601f198616915b82811015611b9657888601518255948401946001909101908401611b77565b5085821015611bb45787850151600019600388901b60f8161c191681555b5050505050600190811b01905550565b81810381811115611bd757611bd7611a53565b92915050565b634e487b7160e01b600052603260045260246000fd5b600082611c1057634e487b7160e01b600052601260045260246000fd5b500690565b8281526000602060408184015260008454611c2f81611a82565b8060408701526060600180841660008114611c515760018114611c6b57611c99565b60ff1985168984015283151560051b890183019550611c99565b896000528660002060005b85811015611c915781548b8201860152908301908801611c76565b8a0184019650505b50939998505050505050505050565b60008351611cba818460208801611745565b9190910191825250602001919050565b80820180821115611bd757611bd7611a5356fea26469706673582212201cdaec6b67bd274665582f84d1b8cac900606f38d070cebb0f1167b2b0619c6864736f6c63430008140033",
  "devdoc": {
    "details": "A contract that validates research hypotheses using Chainlink services - Chainlink Functions for AI validation - Chainlink VRF for random badge assignment - Chainlink Automation for periodic validation checks",
    "kind": "dev",
    "methods": {
      "addBadgeType(string)": {
        "details": "Add new badge type (owner only)",
        "params": {
          "badgeType": "The new badge type"
        }
      },
      "checkUpkeep(bytes)": {
        "details": "Chainlink Automation check function",
        "returns": {
          "performData": "Data to pass to performUpkeep",
          "upkeepNeeded": "Whether upkeep is needed"
        }
      },
      "getBadgeTypes()": {
        "details": "Get all badge types",
        "returns": {
          "_0": "Array of badge types"
        }
      },
      "getHypothesis(uint256)": {
        "details": "Get hypothesis details",
        "params": {
          "hypothesisId": "The hypothesis ID"
        },
        "returns": {
          "_0": "hypothesis The hypothesis struct"
        }
      },
      "getResearcherHypotheses(address)": {
        "details": "Get all hypotheses for a researcher",
        "params": {
          "researcher": "The researcher address"
        },
        "returns": {
          "_0": "hypothesisIds Array of hypothesis IDs"
        }
      },
      "performUpkeep(bytes)": {
        "details": "Chainlink Automation perform function",
        "params": {
          "performData": "Data from checkUpkeep"
        }
      },
      "requestBadgeAssignment(uint256)": {
        "details": "Request Chainlink VRF for random badge assignment",
        "params": {
          "hypothesisId": "The hypothesis ID to award badge for"
        }
      },
      "setValidationThreshold(uint256)": {
        "details": "Update validation threshold (owner only)",
        "params": {
          "newThreshold": "The new threshold value"
        }
      },
      "submitHypothesis(string,string)": {
        "details": "Submit a new hypothesis for validation",
        "params": {
          "content": "The hypothesis content",
          "metadata": "Additional metadata (IPFS hash, etc.)"
        }
      }
    },
    "title": "ChainlinkHypothesisValidator",
    "version": 1
  },
  "userdoc": {
    "kind": "user",
    "methods": {
      "acceptOwnership()": {
        "notice": "Allows an ownership transfer to be completed by the recipient."
      },
      "owner()": {
        "notice": "Get the current owner"
      },
      "transferOwnership(address)": {
        "notice": "Allows an owner to begin transferring ownership to a new address."
      }
    },
    "version": 1
  },
  "storageLayout": {
    "storage": [
      {
        "astId": 97,
        "contract": "contracts/ChainlinkHypothesisValidator.sol:ChainlinkHypothesisValidator",
        "label": "s_owner",
        "offset": 0,
        "slot": "0",
        "type": "t_address"
      },
      {
        "astId": 99,
        "contract": "contracts/ChainlinkHypothesisValidator.sol:ChainlinkHypothesisValidator",
        "label": "s_pendingOwner",
        "offset": 0,
        "slot": "1",
        "type": "t_address"
      },
      {
        "astId": 3941,
        "contract": "contracts/ChainlinkHypothesisValidator.sol:ChainlinkHypothesisValidator",
        "label": "hypotheses",
        "offset": 0,
        "slot": "2",
        "type": "t_mapping(t_uint256,t_struct(Hypothesis)3906_storage)"
      },
      {
        "astId": 3945,
        "contract": "contracts/ChainlinkHypothesisValidator.sol:ChainlinkHypothesisValidator",
        "label": "requestIdToHypothesisId",
        "offset": 0,
        "slot": "3",
        "type": "t_mapping(t_uint256,t_uint256)"
      },
      {
        "astId": 3950,
        "contract": "contracts/ChainlinkHypothesisValidator.sol:ChainlinkHypothesisValidator",
        "label": "researcherHypotheses",
        "offset": 0,
        "slot": "4",
        "type": "t_mapping(t_address,t_array(t_uint256)dyn_storage)"
      },
      {
        "astId": 3952,
        "contract": "contracts/ChainlinkHypothesisValidator.sol:ChainlinkHypothesisValidator",
        "label": "hypothesisCounter",
        "offset": 0,
        "slot": "5",
        "type": "t_uint256"
      },
      {
        "astId": 3955,
        "contract": "contracts/ChainlinkHypothesisValidator.sol:ChainlinkHypothesisValidator",
        "label": "validationThreshold",
        "offset": 0,
        "slot": "6",
        "type": "t_uint256"
      },
      {
        "astId": 3964,
        "contract": "contracts/ChainlinkHypothesisValidator.sol:ChainlinkHypothesisValidator",
        "label": "badgeTypes",
        "offset": 0,
        "slot": "7",
        "type": "t_array(t_string_storage)dyn_storage"
      }
    ],
    "types": {
      "t_address": {
        "encoding": "inplace",
        "label": "address",
        "numberOfBytes": "20"
      },
      "t_array(t_string_storage)dyn_storage": {
        "base": "t_string_storage",
        "encoding": "dynamic_array",
        "label": "string[]",
        "numberOfBytes": "32"
      },
      "t_array(t_uint256)dyn_storage": {
        "base": "t_uint256",
        "encoding": "dynamic_array",
        "label": "uint256[]",
        "numberOfBytes": "32"
      },
      "t_bool": {
        "encoding": "inplace",
        "label": "bool",
        "numberOfBytes": "1"
      },
      "t_mapping(t_address,t_array(t_uint256)dyn_storage)": {
        "encoding": "mapping",
        "key": "t_address",
        "label": "mapping(address => uint256[])",
        "numberOfBytes": "32",
        "value": "t_array(t_uint256)dyn_storage"
      },
      "t_mapping(t_uint256,t_struct(Hypothesis)3906_storage)": {
        "encoding": "mapping",
        "key": "t_uint256",
        "label": "mapping(uint256 => struct ChainlinkHypothesisValidator.Hypothesis)",
        "numberOfBytes": "32",
        "value": "t_struct(Hypothesis)3906_storage"
      },
      "t_mapping(t_uint256,t_uint256)": {
        "encoding": "mapping",
        "key": "t_uint256",
        "label": "mapping(uint256 => uint256)",
        "numberOfBytes": "32",
        "value": "t_uint256"
      },
      "t_string_storage": {
        "encoding": "bytes",
        "label": "string",
        "numberOfBytes": "32"
      },
      "t_struct(Hypothesis)3906_storage": {
        "encoding": "inplace",
        "label": "struct ChainlinkHypothesisValidator.Hypothesis",
        "members": [
          {
            "astId": 3893,
            "contract": "contracts/ChainlinkHypothesisValidator.sol:ChainlinkHypothesisValidator",
            "label": "content",
            "offset": 0,
            "slot": "0",
            "type": "t_string_storage"
          },
          {
            "astId": 3895,
            "contract": "contracts/ChainlinkHypothesisValidator.sol:ChainlinkHypothesisValidator",
            "label": "metadata",
            "offset": 0,
            "slot": "1",
            "type": "t_string_storage"
          },
          {
            "astId": 3897,
            "contract": "contracts/ChainlinkHypothesisValidator.sol:ChainlinkHypothesisValidator",
            "label": "researcher",
            "offset": 0,
            "slot": "2",
            "type": "t_address"
          },
          {
            "astId": 3899,
            "contract": "contracts/ChainlinkHypothesisValidator.sol:ChainlinkHypothesisValidator",
            "label": "timestamp",
            "offset": 0,
            "slot": "3",
            "type": "t_uint256"
          },
          {
            "astId": 3901,
            "contract": "contracts/ChainlinkHypothesisValidator.sol:ChainlinkHypothesisValidator",
            "label": "isValidated",
            "offset": 0,
            "slot": "4",
            "type": "t_bool"
          },
          {
            "astId": 3903,
            "contract": "contracts/ChainlinkHypothesisValidator.sol:ChainlinkHypothesisValidator",
            "label": "validationScore",
            "offset": 0,
            "slot": "5",
            "type": "t_uint256"
          },
          {
            "astId": 3905,
            "contract": "contracts/ChainlinkHypothesisValidator.sol:ChainlinkHypothesisValidator",
            "label": "validationResult",
            "offset": 0,
            "slot": "6",
            "type": "t_string_storage"
          }
        ],
        "numberOfBytes": "224"
      },
      "t_uint256": {
        "encoding": "inplace",
        "label": "uint256",
        "numberOfBytes": "32"
      }
    }
  }
}